{
  "address": "0x013026380ce3Ed5e767F290109E341a9aBe9c924",
  "abi": [
    {
      "type": "constructor",
      "inputs": [
        {
          "name": "operator",
          "type": "address",
          "internalType": "address"
        }
      ],
      "stateMutability": "nonpayable"
    },
    {
      "type": "function",
      "name": "DEFAULT_ADMIN_ROLE",
      "inputs": [],
      "outputs": [
        {
          "name": "",
          "type": "bytes32",
          "internalType": "bytes32"
        }
      ],
      "stateMutability": "view"
    },
    {
      "type": "function",
      "name": "OPERATOR_ROLE",
      "inputs": [],
      "outputs": [
        {
          "name": "",
          "type": "bytes32",
          "internalType": "bytes32"
        }
      ],
      "stateMutability": "view"
    },
    {
      "type": "function",
      "name": "allowAsset",
      "inputs": [
        {
          "name": "asset",
          "type": "address",
          "internalType": "address"
        }
      ],
      "outputs": [],
      "stateMutability": "nonpayable"
    },
    {
      "type": "function",
      "name": "cancelWithdrawal",
      "inputs": [
        {
          "name": "asset",
          "type": "address",
          "internalType": "address"
        }
      ],
      "outputs": [],
      "stateMutability": "nonpayable"
    },
    {
      "type": "function",
      "name": "checkBalance",
      "inputs": [
        {
          "name": "asset",
          "type": "address",
          "internalType": "address"
        }
      ],
      "outputs": [
        {
          "name": "",
          "type": "uint256",
          "internalType": "uint256"
        }
      ],
      "stateMutability": "view"
    },
    {
      "type": "function",
      "name": "checkBalance",
      "inputs": [
        {
          "name": "subscriber",
          "type": "address",
          "internalType": "address"
        },
        {
          "name": "asset",
          "type": "address",
          "internalType": "address"
        }
      ],
      "outputs": [
        {
          "name": "",
          "type": "uint256",
          "internalType": "uint256"
        }
      ],
      "stateMutability": "view"
    },
    {
      "type": "function",
      "name": "checkWithdrawalRequest",
      "inputs": [
        {
          "name": "subscriber",
          "type": "address",
          "internalType": "address"
        },
        {
          "name": "asset",
          "type": "address",
          "internalType": "address"
        }
      ],
      "outputs": [
        {
          "name": "",
          "type": "uint256",
          "internalType": "uint256"
        }
      ],
      "stateMutability": "view"
    },
    {
      "type": "function",
      "name": "claim",
      "inputs": [
        {
          "name": "id",
          "type": "bytes32",
          "internalType": "bytes32"
        },
        {
          "name": "asset",
          "type": "address",
          "internalType": "address"
        },
        {
          "name": "amount",
          "type": "uint256",
          "internalType": "uint256"
        },
        {
          "name": "expiry",
          "type": "uint256",
          "internalType": "uint256"
        },
        {
          "name": "signature",
          "type": "bytes",
          "internalType": "bytes"
        }
      ],
      "outputs": [],
      "stateMutability": "nonpayable"
    },
    {
      "type": "function",
      "name": "completeWithdrawal",
      "inputs": [
        {
          "name": "asset",
          "type": "address",
          "internalType": "address"
        }
      ],
      "outputs": [],
      "stateMutability": "nonpayable"
    },
    {
      "type": "function",
      "name": "deposit",
      "inputs": [
        {
          "name": "_asset",
          "type": "address",
          "internalType": "address"
        },
        {
          "name": "amount",
          "type": "uint256",
          "internalType": "uint256"
        }
      ],
      "outputs": [],
      "stateMutability": "nonpayable"
    },
    {
      "type": "function",
      "name": "disallowAsset",
      "inputs": [
        {
          "name": "asset",
          "type": "address",
          "internalType": "address"
        }
      ],
      "outputs": [],
      "stateMutability": "nonpayable"
    },
    {
      "type": "function",
      "name": "getRandomId",
      "inputs": [
        {
          "name": "subscriber",
          "type": "address",
          "internalType": "address"
        },
        {
          "name": "provider",
          "type": "address",
          "internalType": "address"
        },
        {
          "name": "requestId",
          "type": "uint256",
          "internalType": "uint256"
        }
      ],
      "outputs": [
        {
          "name": "",
          "type": "bytes32",
          "internalType": "bytes32"
        }
      ],
      "stateMutability": "view"
    },
    {
      "type": "function",
      "name": "getRoleAdmin",
      "inputs": [
        {
          "name": "role",
          "type": "bytes32",
          "internalType": "bytes32"
        }
      ],
      "outputs": [
        {
          "name": "",
          "type": "bytes32",
          "internalType": "bytes32"
        }
      ],
      "stateMutability": "view"
    },
    {
      "type": "function",
      "name": "grantRole",
      "inputs": [
        {
          "name": "role",
          "type": "bytes32",
          "internalType": "bytes32"
        },
        {
          "name": "account",
          "type": "address",
          "internalType": "address"
        }
      ],
      "outputs": [],
      "stateMutability": "nonpayable"
    },
    {
      "type": "function",
      "name": "hasRole",
      "inputs": [
        {
          "name": "role",
          "type": "bytes32",
          "internalType": "bytes32"
        },
        {
          "name": "account",
          "type": "address",
          "internalType": "address"
        }
      ],
      "outputs": [
        {
          "name": "",
          "type": "bool",
          "internalType": "bool"
        }
      ],
      "stateMutability": "view"
    },
    {
      "type": "function",
      "name": "initiateWithdrawal",
      "inputs": [
        {
          "name": "asset",
          "type": "address",
          "internalType": "address"
        }
      ],
      "outputs": [],
      "stateMutability": "nonpayable"
    },
    {
      "type": "function",
      "name": "isAssetAllowed",
      "inputs": [
        {
          "name": "asset",
          "type": "address",
          "internalType": "address"
        }
      ],
      "outputs": [
        {
          "name": "",
          "type": "bool",
          "internalType": "bool"
        }
      ],
      "stateMutability": "view"
    },
    {
      "type": "function",
      "name": "isIdUsed",
      "inputs": [
        {
          "name": "subscriber",
          "type": "address",
          "internalType": "address"
        },
        {
          "name": "id",
          "type": "bytes32",
          "internalType": "bytes32"
        }
      ],
      "outputs": [
        {
          "name": "",
          "type": "bool",
          "internalType": "bool"
        }
      ],
      "stateMutability": "view"
    },
    {
      "type": "function",
      "name": "renounceRole",
      "inputs": [
        {
          "name": "role",
          "type": "bytes32",
          "internalType": "bytes32"
        },
        {
          "name": "callerConfirmation",
          "type": "address",
          "internalType": "address"
        }
      ],
      "outputs": [],
      "stateMutability": "nonpayable"
    },
    {
      "type": "function",
      "name": "revokeRole",
      "inputs": [
        {
          "name": "role",
          "type": "bytes32",
          "internalType": "bytes32"
        },
        {
          "name": "account",
          "type": "address",
          "internalType": "address"
        }
      ],
      "outputs": [],
      "stateMutability": "nonpayable"
    },
    {
      "type": "function",
      "name": "supportsInterface",
      "inputs": [
        {
          "name": "interfaceId",
          "type": "bytes4",
          "internalType": "bytes4"
        }
      ],
      "outputs": [
        {
          "name": "",
          "type": "bool",
          "internalType": "bool"
        }
      ],
      "stateMutability": "view"
    },
    {
      "type": "function",
      "name": "updateWithdrawalWaitPeriod",
      "inputs": [
        {
          "name": "newWaitPeriod",
          "type": "uint256",
          "internalType": "uint256"
        }
      ],
      "outputs": [],
      "stateMutability": "nonpayable"
    },
    {
      "type": "function",
      "name": "withdrawalWaitPeriod",
      "inputs": [],
      "outputs": [
        {
          "name": "",
          "type": "uint256",
          "internalType": "uint256"
        }
      ],
      "stateMutability": "view"
    },
    {
      "type": "event",
      "name": "RoleAdminChanged",
      "inputs": [
        {
          "name": "role",
          "type": "bytes32",
          "indexed": true,
          "internalType": "bytes32"
        },
        {
          "name": "previousAdminRole",
          "type": "bytes32",
          "indexed": true,
          "internalType": "bytes32"
        },
        {
          "name": "newAdminRole",
          "type": "bytes32",
          "indexed": true,
          "internalType": "bytes32"
        }
      ],
      "anonymous": false
    },
    {
      "type": "event",
      "name": "RoleGranted",
      "inputs": [
        {
          "name": "role",
          "type": "bytes32",
          "indexed": true,
          "internalType": "bytes32"
        },
        {
          "name": "account",
          "type": "address",
          "indexed": true,
          "internalType": "address"
        },
        {
          "name": "sender",
          "type": "address",
          "indexed": true,
          "internalType": "address"
        }
      ],
      "anonymous": false
    },
    {
      "type": "event",
      "name": "RoleRevoked",
      "inputs": [
        {
          "name": "role",
          "type": "bytes32",
          "indexed": true,
          "internalType": "bytes32"
        },
        {
          "name": "account",
          "type": "address",
          "indexed": true,
          "internalType": "address"
        },
        {
          "name": "sender",
          "type": "address",
          "indexed": true,
          "internalType": "address"
        }
      ],
      "anonymous": false
    },
    {
      "type": "error",
      "name": "AccessControlBadConfirmation",
      "inputs": []
    },
    {
      "type": "error",
      "name": "AccessControlUnauthorizedAccount",
      "inputs": [
        {
          "name": "account",
          "type": "address",
          "internalType": "address"
        },
        {
          "name": "neededRole",
          "type": "bytes32",
          "internalType": "bytes32"
        }
      ]
    },
    {
      "type": "error",
      "name": "AddressEmptyCode",
      "inputs": [
        {
          "name": "target",
          "type": "address",
          "internalType": "address"
        }
      ]
    },
    {
      "type": "error",
      "name": "AddressInsufficientBalance",
      "inputs": [
        {
          "name": "account",
          "type": "address",
          "internalType": "address"
        }
      ]
    },
    {
      "type": "error",
      "name": "FailedInnerCall",
      "inputs": []
    },
    {
      "type": "error",
      "name": "Payments__allowAsset_assetAlreadyAllowed",
      "inputs": []
    },
    {
      "type": "error",
      "name": "Payments__cancelWithdrawal_noOpenRequest",
      "inputs": []
    },
    {
      "type": "error",
      "name": "Payments__claim_expired",
      "inputs": []
    },
    {
      "type": "error",
      "name": "Payments__claim_idAlreadyUsed",
      "inputs": []
    },
    {
      "type": "error",
      "name": "Payments__claim_insufficientFundsInAccount",
      "inputs": []
    },
    {
      "type": "error",
      "name": "Payments__claim_invalidSignature",
      "inputs": []
    },
    {
      "type": "error",
      "name": "Payments__completeWithdrawal_noOpenRequest",
      "inputs": []
    },
    {
      "type": "error",
      "name": "Payments__completeWithdrawal_waitPeriodNotElapsed",
      "inputs": []
    },
    {
      "type": "error",
      "name": "Payments__deposit_assetNotSupported",
      "inputs": []
    },
    {
      "type": "error",
      "name": "Payments__deposit_incorrectAmountTransferred",
      "inputs": []
    },
    {
      "type": "error",
      "name": "Payments__deposit_insufficientFunds",
      "inputs": []
    },
    {
      "type": "error",
      "name": "Payments__deposit_spendingNotApproved",
      "inputs": []
    },
    {
      "type": "error",
      "name": "Payments__disallowAsset_assetAlreadyNotAllowed",
      "inputs": []
    },
    {
      "type": "error",
      "name": "Payments__initiateWithdrawal_accountEmpty",
      "inputs": []
    },
    {
      "type": "error",
      "name": "Payments__updateWithdrawalWaitPeriod_lessThanMin",
      "inputs": []
    },
    {
      "type": "error",
      "name": "SafeERC20FailedOperation",
      "inputs": [
        {
          "name": "token",
          "type": "address",
          "internalType": "address"
        }
      ]
    }
  ],
  "bytecode": {
    "object": "0x6080604052620151806005553480156200001857600080fd5b5060405162001bfc38038062001bfc8339810160408190526200003b916200012c565b620000486000336200007d565b50620000757fb19546dff01e856fb3f010c267a7b1c60363cf8a4664e21cc89c26224620214e826200007d565b50506200015e565b6000828152602081815260408083206001600160a01b038516845290915281205460ff1662000122576000838152602081815260408083206001600160a01b03861684529091529020805460ff19166001179055620000d93390565b6001600160a01b0316826001600160a01b0316847f2f8788117e7eff1d82e926ec794901d17c78024a50270940304540a733656f0d60405160405180910390a450600162000126565b5060005b92915050565b6000602082840312156200013f57600080fd5b81516001600160a01b03811681146200015757600080fd5b9392505050565b611a8e806200016e6000396000f3fe608060405234801561001057600080fd5b506004361061018c5760003560e01c8063777e928b116100e3578063a013b1e71161008c578063d547741f11610066578063d547741f1461044d578063f0dfae7014610460578063f5b541a61461047357600080fd5b8063a013b1e71461041f578063a217fddf14610432578063b4389a001461043a57600080fd5b806391d14854116100bd57806391d148541461039957806393cedc14146103dd5780639469bf8f146103e657600080fd5b8063777e928b146102fa57806377b76ec3146103405780637eeb17731461038657600080fd5b806336568abe1161014557806355bf0c731161011f57806355bf0c731461025e5780635f515226146102a45780636dbaf9ee146102e757600080fd5b806336568abe146102255780633e0db8691461023857806347e7ef241461024b57600080fd5b80632298d849116101765780632298d849146101da578063248a9ca3146101ef5780632f2ff15d1461021257600080fd5b806296da921461019157806301ffc9a7146101b7575b600080fd5b6101a461019f36600461173b565b61049a565b6040519081526020015b60405180910390f35b6101ca6101c5366004611777565b610506565b60405190151581526020016101ae565b6101ed6101e83660046117b9565b61059f565b005b6101a46101fd3660046117d4565b60009081526020819052604090206001015490565b6101ed6102203660046117ed565b610675565b6101ed6102333660046117ed565b6106a0565b6101ed6102463660046117b9565b6106fe565b6101ed610259366004611819565b61079d565b6101a461026c366004611843565b73ffffffffffffffffffffffffffffffffffffffff918216600090815260046020908152604080832093909416825291909152205490565b6101a46102b23660046117b9565b33600090815260026020908152604080832073ffffffffffffffffffffffffffffffffffffffff949094168352929052205490565b6101ed6102f53660046117b9565b610b5d565b6101ca610308366004611819565b73ffffffffffffffffffffffffffffffffffffffff919091166000908152600360209081526040808320938352929052205460ff1690565b6101a461034e366004611843565b73ffffffffffffffffffffffffffffffffffffffff918216600090815260026020908152604080832093909416825291909152205490565b6101ed6103943660046117b9565b610c76565b6101ca6103a73660046117ed565b60009182526020828152604080842073ffffffffffffffffffffffffffffffffffffffff93909316845291905290205460ff1690565b6101a460055481565b6101ca6103f43660046117b9565b73ffffffffffffffffffffffffffffffffffffffff1660009081526001602052604090205460ff1690565b6101ed61042d3660046117b9565b610d15565b6101a4600081565b6101ed6104483660046117d4565b610df2565b6101ed61045b3660046117ed565b610e5f565b6101ed61046e36600461189c565b610e84565b6101a47fb19546dff01e856fb3f010c267a7b1c60363cf8a4664e21cc89c26224620214e81565b6040517fffffffffffffffffffffffffffffffffffffffff000000000000000000000000606085811b8216602084015284901b166034820152604881018290524360688201526000906088016040516020818303038152906040528051906020012090505b9392505050565b60007fffffffff0000000000000000000000000000000000000000000000000000000082167f7965db0b00000000000000000000000000000000000000000000000000000000148061059957507f01ffc9a7000000000000000000000000000000000000000000000000000000007fffffffff000000000000000000000000000000000000000000000000000000008316145b92915050565b7fb19546dff01e856fb3f010c267a7b1c60363cf8a4664e21cc89c26224620214e6105c9816110d9565b73ffffffffffffffffffffffffffffffffffffffff821660009081526001602052604090205460ff16610628576040517f7bf42a5600000000000000000000000000000000000000000000000000000000815260040160405180910390fd5b5073ffffffffffffffffffffffffffffffffffffffff16600090815260016020526040902080547fffffffffffffffffffffffffffffffffffffffffffffffffffffffffffffff00169055565b600082815260208190526040902060010154610690816110d9565b61069a83836110e6565b50505050565b73ffffffffffffffffffffffffffffffffffffffff811633146106ef576040517f6697b23200000000000000000000000000000000000000000000000000000000815260040160405180910390fd5b6106f982826111e2565b505050565b33600090815260046020908152604080832073ffffffffffffffffffffffffffffffffffffffff851684529091528120549003610767576040517f5809f4f500000000000000000000000000000000000000000000000000000000815260040160405180910390fd5b33600090815260046020908152604080832073ffffffffffffffffffffffffffffffffffffffff94909416835292905290812055565b73ffffffffffffffffffffffffffffffffffffffff8216600090815260016020526040902054339060ff166107fe576040517f7100943c00000000000000000000000000000000000000000000000000000000815260040160405180910390fd5b6040517f70a0823100000000000000000000000000000000000000000000000000000000815273ffffffffffffffffffffffffffffffffffffffff8281166004830152849184918316906370a0823190602401602060405180830381865afa15801561086e573d6000803e3d6000fd5b505050506040513d601f19601f820116820180604052508101906108929190611999565b10156108ca576040517fe575ce8c00000000000000000000000000000000000000000000000000000000815260040160405180910390fd5b6040517fdd62ed3e00000000000000000000000000000000000000000000000000000000815273ffffffffffffffffffffffffffffffffffffffff838116600483015230602483015284919083169063dd62ed3e90604401602060405180830381865afa15801561093f573d6000803e3d6000fd5b505050506040513d601f19601f820116820180604052508101906109639190611999565b101561099b576040517fa18698c200000000000000000000000000000000000000000000000000000000815260040160405180910390fd5b6040517f70a0823100000000000000000000000000000000000000000000000000000000815230600482015260009073ffffffffffffffffffffffffffffffffffffffff8316906370a0823190602401602060405180830381865afa158015610a08573d6000803e3d6000fd5b505050506040513d601f19601f82011682018060405250810190610a2c9190611999565b9050610a3a8284308761129d565b6040517f70a082310000000000000000000000000000000000000000000000000000000081523060048201528490829073ffffffffffffffffffffffffffffffffffffffff8516906370a0823190602401602060405180830381865afa158015610aa8573d6000803e3d6000fd5b505050506040513d601f19601f82011682018060405250810190610acc9190611999565b610ad691906119e1565b14610b0d576040517f93cd96a100000000000000000000000000000000000000000000000000000000815260040160405180910390fd5b73ffffffffffffffffffffffffffffffffffffffff808416600090815260026020908152604080832093891683529290529081208054869290610b519084906119f4565b90915550505050505050565b33600090815260046020908152604080832073ffffffffffffffffffffffffffffffffffffffff8516845290915281205490819003610bc8576040517f4f9d713500000000000000000000000000000000000000000000000000000000815260040160405180910390fd5b600554610bd582426119e1565b1015610c0d576040517f682b917d00000000000000000000000000000000000000000000000000000000815260040160405180910390fd5b33600081815260046020908152604080832073ffffffffffffffffffffffffffffffffffffffff871680855290835281842084905593835260028252808320938352929052908120805491829190610c6583806119e1565b909155506106f99050833383611326565b33600090815260026020908152604080832073ffffffffffffffffffffffffffffffffffffffff851684529091528120549003610cdf576040517f995b31ca00000000000000000000000000000000000000000000000000000000815260040160405180910390fd5b33600090815260046020908152604080832073ffffffffffffffffffffffffffffffffffffffff94909416835292905220429055565b7fb19546dff01e856fb3f010c267a7b1c60363cf8a4664e21cc89c26224620214e610d3f816110d9565b73ffffffffffffffffffffffffffffffffffffffff821660009081526001602052604090205460ff1615610d9f576040517f2f96f48e00000000000000000000000000000000000000000000000000000000815260040160405180910390fd5b5073ffffffffffffffffffffffffffffffffffffffff16600090815260016020819052604090912080547fffffffffffffffffffffffffffffffffffffffffffffffffffffffffffffff00169091179055565b7fb19546dff01e856fb3f010c267a7b1c60363cf8a4664e21cc89c26224620214e610e1c816110d9565b62015180821015610e59576040517f9c81e8e300000000000000000000000000000000000000000000000000000000815260040160405180910390fd5b50600555565b600082815260208190526040902060010154610e7a816110d9565b61069a83836111e2565b42821015610ebe576040517f3f21aea900000000000000000000000000000000000000000000000000000000815260040160405180910390fd5b60408051602080820188905233606081811b7fffffffffffffffffffffffffffffffffffffffff000000000000000000000000908116858701529089901b1660548401526068830187905260888084018790528451808503909101815260a890930190935281519101206000610f348285611364565b73ffffffffffffffffffffffffffffffffffffffff811660009081526003602090815260408083208c845290915290205490915060ff1615610fa2576040517f069f3dba00000000000000000000000000000000000000000000000000000000815260040160405180910390fd5b73ffffffffffffffffffffffffffffffffffffffff80821660008181526003602090815260408083208d8452825280832080547fffffffffffffffffffffffffffffffffffffffffffffffffffffffffffffff0016600117905592825260028152828220938b168252929092528120549081900361104c576040517f1a99fe0c00000000000000000000000000000000000000000000000000000000815260040160405180910390fd5b86811015611086576040517ff8e4874100000000000000000000000000000000000000000000000000000000815260040160405180910390fd5b61109087826119e1565b73ffffffffffffffffffffffffffffffffffffffff8084166000908152600260209081526040808320938d16835292905220556110ce888589611326565b505050505050505050565b6110e38133611401565b50565b60008281526020818152604080832073ffffffffffffffffffffffffffffffffffffffff8516845290915281205460ff166111da5760008381526020818152604080832073ffffffffffffffffffffffffffffffffffffffff86168452909152902080547fffffffffffffffffffffffffffffffffffffffffffffffffffffffffffffff001660011790556111783390565b73ffffffffffffffffffffffffffffffffffffffff168273ffffffffffffffffffffffffffffffffffffffff16847f2f8788117e7eff1d82e926ec794901d17c78024a50270940304540a733656f0d60405160405180910390a4506001610599565b506000610599565b60008281526020818152604080832073ffffffffffffffffffffffffffffffffffffffff8516845290915281205460ff16156111da5760008381526020818152604080832073ffffffffffffffffffffffffffffffffffffffff8616808552925280832080547fffffffffffffffffffffffffffffffffffffffffffffffffffffffffffffff0016905551339286917ff6391f5c32d9c69d2a47ea670b442974b53935d1edc7fd64eb21e047a839171b9190a4506001610599565b60405173ffffffffffffffffffffffffffffffffffffffff848116602483015283811660448301526064820183905261069a9186918216906323b872dd906084015b604051602081830303815290604052915060e01b6020820180517bffffffffffffffffffffffffffffffffffffffffffffffffffffffff8381831617835250505050611490565b60405173ffffffffffffffffffffffffffffffffffffffff8381166024830152604482018390526106f991859182169063a9059cbb906064016112df565b60008060008061137385611526565b6040805160008152602081018083528b905260ff8516918101919091526060810183905260808101829052929550909350915060019060a0016020604051602081039080840390855afa1580156113ce573d6000803e3d6000fd5b50506040517fffffffffffffffffffffffffffffffffffffffffffffffffffffffffffffffe00151979650505050505050565b60008281526020818152604080832073ffffffffffffffffffffffffffffffffffffffff8516845290915290205460ff1661148c576040517fe2517d3f00000000000000000000000000000000000000000000000000000000815273ffffffffffffffffffffffffffffffffffffffff82166004820152602481018390526044015b60405180910390fd5b5050565b60006114b273ffffffffffffffffffffffffffffffffffffffff8416836115b2565b905080516000141580156114d75750808060200190518101906114d59190611a07565b155b156106f9576040517f5274afe700000000000000000000000000000000000000000000000000000000815273ffffffffffffffffffffffffffffffffffffffff84166004820152602401611483565b60008060008351604114611596576040517f08c379a000000000000000000000000000000000000000000000000000000000815260206004820152601b60248201527f496e636f7272656374207369676e6174757265206c656e6774682e00000000006044820152606401611483565b5050506020810151604082015160609092015160001a92909190565b60606104ff83836000846000808573ffffffffffffffffffffffffffffffffffffffff1684866040516115e59190611a29565b60006040518083038185875af1925050503d8060008114611622576040519150601f19603f3d011682016040523d82523d6000602084013e611627565b606091505b5091509150611637868383611641565b9695505050505050565b60608261165657611651826116d0565b6104ff565b815115801561167a575073ffffffffffffffffffffffffffffffffffffffff84163b155b156116c9576040517f9996b31500000000000000000000000000000000000000000000000000000000815273ffffffffffffffffffffffffffffffffffffffff85166004820152602401611483565b50806104ff565b8051156116e05780518082602001fd5b6040517f1425ea4200000000000000000000000000000000000000000000000000000000815260040160405180910390fd5b803573ffffffffffffffffffffffffffffffffffffffff8116811461173657600080fd5b919050565b60008060006060848603121561175057600080fd5b61175984611712565b925061176760208501611712565b9150604084013590509250925092565b60006020828403121561178957600080fd5b81357fffffffff00000000000000000000000000000000000000000000000000000000811681146104ff57600080fd5b6000602082840312156117cb57600080fd5b6104ff82611712565b6000602082840312156117e657600080fd5b5035919050565b6000806040838503121561180057600080fd5b8235915061181060208401611712565b90509250929050565b6000806040838503121561182c57600080fd5b61183583611712565b946020939093013593505050565b6000806040838503121561185657600080fd5b61185f83611712565b915061181060208401611712565b7f4e487b7100000000000000000000000000000000000000000000000000000000600052604160045260246000fd5b600080600080600060a086880312156118b457600080fd5b853594506118c460208701611712565b93506040860135925060608601359150608086013567ffffffffffffffff808211156118ef57600080fd5b818801915088601f83011261190357600080fd5b8135818111156119155761191561186d565b604051601f82017fffffffffffffffffffffffffffffffffffffffffffffffffffffffffffffffe0908116603f0116810190838211818310171561195b5761195b61186d565b816040528281528b602084870101111561197457600080fd5b8260208601602083013760006020848301015280955050505050509295509295909350565b6000602082840312156119ab57600080fd5b5051919050565b7f4e487b7100000000000000000000000000000000000000000000000000000000600052601160045260246000fd5b81810381811115610599576105996119b2565b80820180821115610599576105996119b2565b600060208284031215611a1957600080fd5b815180151581146104ff57600080fd5b6000825160005b81811015611a4a5760208186018101518583015201611a30565b50600092019182525091905056fea2646970667358221220d049c9744a648c9d546844b2b136df0b378f894147eb03ca50e402b83172ce5564736f6c63430008170033",
    "linkReferences": {}
  },
  "methodIdentifiers": {
    "DEFAULT_ADMIN_ROLE()": "a217fddf",
    "OPERATOR_ROLE()": "f5b541a6",
    "allowAsset(address)": "a013b1e7",
    "cancelWithdrawal(address)": "3e0db869",
    "checkBalance(address)": "5f515226",
    "checkBalance(address,address)": "77b76ec3",
    "checkWithdrawalRequest(address,address)": "55bf0c73",
    "claim(bytes32,address,uint256,uint256,bytes)": "f0dfae70",
    "completeWithdrawal(address)": "6dbaf9ee",
    "deposit(address,uint256)": "47e7ef24",
    "disallowAsset(address)": "2298d849",
    "getRandomId(address,address,uint256)": "0096da92",
    "getRoleAdmin(bytes32)": "248a9ca3",
    "grantRole(bytes32,address)": "2f2ff15d",
    "hasRole(bytes32,address)": "91d14854",
    "initiateWithdrawal(address)": "7eeb1773",
    "isAssetAllowed(address)": "9469bf8f",
    "isIdUsed(address,bytes32)": "777e928b",
    "renounceRole(bytes32,address)": "36568abe",
    "revokeRole(bytes32,address)": "d547741f",
    "supportsInterface(bytes4)": "01ffc9a7",
    "updateWithdrawalWaitPeriod(uint256)": "b4389a00",
    "withdrawalWaitPeriod()": "93cedc14"
  },
  "id": 32
}